{
  "_format": "hh-sol-artifact-1",
  "contractName": "ContentFactory",
  "sourceName": "contracts/ContentFactory.sol",
  "abi": [
    {
      "inputs": [],
      "stateMutability": "nonpayable",
      "type": "constructor"
    },
    {
      "inputs": [
        {
          "internalType": "address",
          "name": "sender",
          "type": "address"
        },
        {
          "internalType": "uint256",
          "name": "tokenId",
          "type": "uint256"
        },
        {
          "internalType": "address",
          "name": "owner",
          "type": "address"
        }
      ],
      "name": "ERC721IncorrectOwner",
      "type": "error"
    },
    {
      "inputs": [
        {
          "internalType": "address",
          "name": "operator",
          "type": "address"
        },
        {
          "internalType": "uint256",
          "name": "tokenId",
          "type": "uint256"
        }
      ],
      "name": "ERC721InsufficientApproval",
      "type": "error"
    },
    {
      "inputs": [
        {
          "internalType": "address",
          "name": "approver",
          "type": "address"
        }
      ],
      "name": "ERC721InvalidApprover",
      "type": "error"
    },
    {
      "inputs": [
        {
          "internalType": "address",
          "name": "operator",
          "type": "address"
        }
      ],
      "name": "ERC721InvalidOperator",
      "type": "error"
    },
    {
      "inputs": [
        {
          "internalType": "address",
          "name": "owner",
          "type": "address"
        }
      ],
      "name": "ERC721InvalidOwner",
      "type": "error"
    },
    {
      "inputs": [
        {
          "internalType": "address",
          "name": "receiver",
          "type": "address"
        }
      ],
      "name": "ERC721InvalidReceiver",
      "type": "error"
    },
    {
      "inputs": [
        {
          "internalType": "address",
          "name": "sender",
          "type": "address"
        }
      ],
      "name": "ERC721InvalidSender",
      "type": "error"
    },
    {
      "inputs": [
        {
          "internalType": "uint256",
          "name": "tokenId",
          "type": "uint256"
        }
      ],
      "name": "ERC721NonexistentToken",
      "type": "error"
    },
    {
      "inputs": [
        {
          "internalType": "address",
          "name": "owner",
          "type": "address"
        }
      ],
      "name": "OwnableInvalidOwner",
      "type": "error"
    },
    {
      "inputs": [
        {
          "internalType": "address",
          "name": "account",
          "type": "address"
        }
      ],
      "name": "OwnableUnauthorizedAccount",
      "type": "error"
    },
    {
      "anonymous": false,
      "inputs": [
        {
          "indexed": true,
          "internalType": "address",
          "name": "owner",
          "type": "address"
        },
        {
          "indexed": true,
          "internalType": "address",
          "name": "approved",
          "type": "address"
        },
        {
          "indexed": true,
          "internalType": "uint256",
          "name": "tokenId",
          "type": "uint256"
        }
      ],
      "name": "Approval",
      "type": "event"
    },
    {
      "anonymous": false,
      "inputs": [
        {
          "indexed": true,
          "internalType": "address",
          "name": "owner",
          "type": "address"
        },
        {
          "indexed": true,
          "internalType": "address",
          "name": "operator",
          "type": "address"
        },
        {
          "indexed": false,
          "internalType": "bool",
          "name": "approved",
          "type": "bool"
        }
      ],
      "name": "ApprovalForAll",
      "type": "event"
    },
    {
      "anonymous": false,
      "inputs": [
        {
          "indexed": true,
          "internalType": "bytes32",
          "name": "contentHash",
          "type": "bytes32"
        },
        {
          "indexed": true,
          "internalType": "address",
          "name": "submitter",
          "type": "address"
        },
        {
          "indexed": false,
          "internalType": "string",
          "name": "contentURI",
          "type": "string"
        }
      ],
      "name": "ContentSubmitted",
      "type": "event"
    },
    {
      "anonymous": false,
      "inputs": [
        {
          "indexed": false,
          "internalType": "uint256",
          "name": "newPrice",
          "type": "uint256"
        }
      ],
      "name": "MintPriceUpdated",
      "type": "event"
    },
    {
      "anonymous": false,
      "inputs": [
        {
          "indexed": true,
          "internalType": "uint256",
          "name": "tokenId",
          "type": "uint256"
        },
        {
          "indexed": true,
          "internalType": "bytes32",
          "name": "contentHash",
          "type": "bytes32"
        },
        {
          "indexed": true,
          "internalType": "address",
          "name": "minter",
          "type": "address"
        }
      ],
      "name": "NFTMinted",
      "type": "event"
    },
    {
      "anonymous": false,
      "inputs": [
        {
          "indexed": true,
          "internalType": "address",
          "name": "previousOwner",
          "type": "address"
        },
        {
          "indexed": true,
          "internalType": "address",
          "name": "newOwner",
          "type": "address"
        }
      ],
      "name": "OwnershipTransferred",
      "type": "event"
    },
    {
      "anonymous": false,
      "inputs": [
        {
          "indexed": true,
          "internalType": "bytes32",
          "name": "contentHash",
          "type": "bytes32"
        },
        {
          "indexed": false,
          "internalType": "uint256",
          "name": "amount",
          "type": "uint256"
        }
      ],
      "name": "StorageFeesCollected",
      "type": "event"
    },
    {
      "anonymous": false,
      "inputs": [
        {
          "indexed": true,
          "internalType": "address",
          "name": "from",
          "type": "address"
        },
        {
          "indexed": true,
          "internalType": "address",
          "name": "to",
          "type": "address"
        },
        {
          "indexed": true,
          "internalType": "uint256",
          "name": "tokenId",
          "type": "uint256"
        }
      ],
      "name": "Transfer",
      "type": "event"
    },
    {
      "inputs": [
        {
          "internalType": "address",
          "name": "to",
          "type": "address"
        },
        {
          "internalType": "uint256",
          "name": "tokenId",
          "type": "uint256"
        }
      ],
      "name": "approve",
      "outputs": [],
      "stateMutability": "nonpayable",
      "type": "function"
    },
    {
      "inputs": [
        {
          "internalType": "address",
          "name": "owner",
          "type": "address"
        }
      ],
      "name": "balanceOf",
      "outputs": [
        {
          "internalType": "uint256",
          "name": "",
          "type": "uint256"
        }
      ],
      "stateMutability": "view",
      "type": "function"
    },
    {
      "inputs": [
        {
          "internalType": "bytes32",
          "name": "",
          "type": "bytes32"
        }
      ],
      "name": "contents",
      "outputs": [
        {
          "internalType": "bytes32",
          "name": "contentHash",
          "type": "bytes32"
        },
        {
          "internalType": "string",
          "name": "contentURI",
          "type": "string"
        },
        {
          "internalType": "address",
          "name": "submitter",
          "type": "address"
        },
        {
          "internalType": "uint256",
          "name": "totalMinted",
          "type": "uint256"
        },
        {
          "internalType": "bool",
          "name": "exists",
          "type": "bool"
        }
      ],
      "stateMutability": "view",
      "type": "function"
    },
    {
      "inputs": [],
      "name": "daoTreasury",
      "outputs": [
        {
          "internalType": "address",
          "name": "",
          "type": "address"
        }
      ],
      "stateMutability": "view",
      "type": "function"
    },
    {
      "inputs": [
        {
          "internalType": "uint256",
          "name": "tokenId",
          "type": "uint256"
        }
      ],
      "name": "getApproved",
      "outputs": [
        {
          "internalType": "address",
          "name": "",
          "type": "address"
        }
      ],
      "stateMutability": "view",
      "type": "function"
    },
    {
      "inputs": [
        {
          "internalType": "bytes32",
          "name": "contentHash",
          "type": "bytes32"
        }
      ],
      "name": "getContent",
      "outputs": [
        {
          "internalType": "string",
          "name": "contentURI",
          "type": "string"
        },
        {
          "internalType": "address",
          "name": "submitter",
          "type": "address"
        },
        {
          "internalType": "uint256",
          "name": "totalMinted",
          "type": "uint256"
        }
      ],
      "stateMutability": "view",
      "type": "function"
    },
    {
      "inputs": [
        {
          "internalType": "address",
          "name": "owner",
          "type": "address"
        },
        {
          "internalType": "address",
          "name": "operator",
          "type": "address"
        }
      ],
      "name": "isApprovedForAll",
      "outputs": [
        {
          "internalType": "bool",
          "name": "",
          "type": "bool"
        }
      ],
      "stateMutability": "view",
      "type": "function"
    },
    {
      "inputs": [
        {
          "internalType": "bytes32",
          "name": "contentHash",
          "type": "bytes32"
        }
      ],
      "name": "mintContentNFT",
      "outputs": [],
      "stateMutability": "payable",
      "type": "function"
    },
    {
      "inputs": [],
      "name": "mintPrice",
      "outputs": [
        {
          "internalType": "uint256",
          "name": "",
          "type": "uint256"
        }
      ],
      "stateMutability": "view",
      "type": "function"
    },
    {
      "inputs": [],
      "name": "name",
      "outputs": [
        {
          "internalType": "string",
          "name": "",
          "type": "string"
        }
      ],
      "stateMutability": "view",
      "type": "function"
    },
    {
      "inputs": [],
      "name": "owner",
      "outputs": [
        {
          "internalType": "address",
          "name": "",
          "type": "address"
        }
      ],
      "stateMutability": "view",
      "type": "function"
    },
    {
      "inputs": [
        {
          "internalType": "uint256",
          "name": "tokenId",
          "type": "uint256"
        }
      ],
      "name": "ownerOf",
      "outputs": [
        {
          "internalType": "address",
          "name": "",
          "type": "address"
        }
      ],
      "stateMutability": "view",
      "type": "function"
    },
    {
      "inputs": [],
      "name": "renounceOwnership",
      "outputs": [],
      "stateMutability": "nonpayable",
      "type": "function"
    },
    {
      "inputs": [
        {
          "internalType": "address",
          "name": "from",
          "type": "address"
        },
        {
          "internalType": "address",
          "name": "to",
          "type": "address"
        },
        {
          "internalType": "uint256",
          "name": "tokenId",
          "type": "uint256"
        }
      ],
      "name": "safeTransferFrom",
      "outputs": [],
      "stateMutability": "nonpayable",
      "type": "function"
    },
    {
      "inputs": [
        {
          "internalType": "address",
          "name": "from",
          "type": "address"
        },
        {
          "internalType": "address",
          "name": "to",
          "type": "address"
        },
        {
          "internalType": "uint256",
          "name": "tokenId",
          "type": "uint256"
        },
        {
          "internalType": "bytes",
          "name": "data",
          "type": "bytes"
        }
      ],
      "name": "safeTransferFrom",
      "outputs": [],
      "stateMutability": "nonpayable",
      "type": "function"
    },
    {
      "inputs": [
        {
          "internalType": "address",
          "name": "operator",
          "type": "address"
        },
        {
          "internalType": "bool",
          "name": "approved",
          "type": "bool"
        }
      ],
      "name": "setApprovalForAll",
      "outputs": [],
      "stateMutability": "nonpayable",
      "type": "function"
    },
    {
      "inputs": [
        {
          "internalType": "address",
          "name": "_treasury",
          "type": "address"
        }
      ],
      "name": "setDaoTreasury",
      "outputs": [],
      "stateMutability": "nonpayable",
      "type": "function"
    },
    {
      "inputs": [
        {
          "internalType": "uint256",
          "name": "newPrice",
          "type": "uint256"
        }
      ],
      "name": "setMintPrice",
      "outputs": [],
      "stateMutability": "nonpayable",
      "type": "function"
    },
    {
      "inputs": [
        {
          "internalType": "bytes32",
          "name": "contentHash",
          "type": "bytes32"
        },
        {
          "internalType": "string",
          "name": "contentURI",
          "type": "string"
        }
      ],
      "name": "submitContent",
      "outputs": [],
      "stateMutability": "nonpayable",
      "type": "function"
    },
    {
      "inputs": [
        {
          "internalType": "bytes4",
          "name": "interfaceId",
          "type": "bytes4"
        }
      ],
      "name": "supportsInterface",
      "outputs": [
        {
          "internalType": "bool",
          "name": "",
          "type": "bool"
        }
      ],
      "stateMutability": "view",
      "type": "function"
    },
    {
      "inputs": [],
      "name": "symbol",
      "outputs": [
        {
          "internalType": "string",
          "name": "",
          "type": "string"
        }
      ],
      "stateMutability": "view",
      "type": "function"
    },
    {
      "inputs": [
        {
          "internalType": "uint256",
          "name": "",
          "type": "uint256"
        }
      ],
      "name": "tokenContent",
      "outputs": [
        {
          "internalType": "bytes32",
          "name": "",
          "type": "bytes32"
        }
      ],
      "stateMutability": "view",
      "type": "function"
    },
    {
      "inputs": [
        {
          "internalType": "uint256",
          "name": "tokenId",
          "type": "uint256"
        }
      ],
      "name": "tokenURI",
      "outputs": [
        {
          "internalType": "string",
          "name": "",
          "type": "string"
        }
      ],
      "stateMutability": "view",
      "type": "function"
    },
    {
      "inputs": [
        {
          "internalType": "address",
          "name": "from",
          "type": "address"
        },
        {
          "internalType": "address",
          "name": "to",
          "type": "address"
        },
        {
          "internalType": "uint256",
          "name": "tokenId",
          "type": "uint256"
        }
      ],
      "name": "transferFrom",
      "outputs": [],
      "stateMutability": "nonpayable",
      "type": "function"
    },
    {
      "inputs": [
        {
          "internalType": "address",
          "name": "newOwner",
          "type": "address"
        }
      ],
      "name": "transferOwnership",
      "outputs": [],
      "stateMutability": "nonpayable",
      "type": "function"
    }
  ],
  "bytecode": "0x60806040523480156200001157600080fd5b50336040518060400160405280600f81526020016e436f6e74656e74426f6f6b6d61726b60881b8152506040518060400160405280600381526020016243424d60e81b8152508160009081620000689190620001b2565b506001620000778282620001b2565b5050506001600160a01b038116620000a957604051631e4fbdf760e01b81526000600482015260240160405180910390fd5b620000b481620000bb565b506200027e565b600680546001600160a01b038381166001600160a01b0319831681179093556040519116919082907f8be0079c531659141344cd1fd0a4f28419497f9722a3daafe3b4186f6b6457e090600090a35050565b634e487b7160e01b600052604160045260246000fd5b600181811c908216806200013857607f821691505b6020821081036200015957634e487b7160e01b600052602260045260246000fd5b50919050565b601f821115620001ad57600081815260208120601f850160051c81016020861015620001885750805b601f850160051c820191505b81811015620001a95782815560010162000194565b5050505b505050565b81516001600160401b03811115620001ce57620001ce6200010d565b620001e681620001df845462000123565b846200015f565b602080601f8311600181146200021e5760008415620002055750858301515b600019600386901b1c1916600185901b178555620001a9565b600085815260208120601f198616915b828110156200024f578886015182559484019460019091019084016200022e565b50858210156200026e5787850151600019600388901b60f8161c191681555b5050505050600190811b01905550565b6119e8806200028e6000396000f3fe6080604052600436106101665760003560e01c8063715018a6116100d1578063a726946f1161008a578063e985e9c511610064578063e985e9c514610437578063f20ca12c14610457578063f2fde38b14610488578063f4a0a528146104a857600080fd5b8063a726946f146103d7578063b88d4fde146103f7578063c87b56dd1461041757600080fd5b8063715018a61461032f57806379022a9f146103445780638da5cb5b1461036457806395d89b4114610382578063a124df5d14610397578063a22cb465146103b757600080fd5b806342842e0e1161012357806342842e0e146102775780635cc15001146102975780636352211e146102c65780636817c76c146102e65780637010bf59146102fc57806370a082311461030f57600080fd5b806301ffc9a71461016b57806306fdde03146101a0578063081812fc146101c2578063095ea7b3146101fa57806323b872dd1461021c5780633969a1a51461023c575b600080fd5b34801561017757600080fd5b5061018b61018636600461145a565b6104c8565b60405190151581526020015b60405180910390f35b3480156101ac57600080fd5b506101b561051a565b60405161019791906114c4565b3480156101ce57600080fd5b506101e26101dd3660046114d7565b6105ac565b6040516001600160a01b039091168152602001610197565b34801561020657600080fd5b5061021a61021536600461150c565b6105d5565b005b34801561022857600080fd5b5061021a610237366004611536565b6105e4565b34801561024857600080fd5b506102696102573660046114d7565b60096020526000908152604090205481565b604051908152602001610197565b34801561028357600080fd5b5061021a610292366004611536565b610674565b3480156102a357600080fd5b506102b76102b23660046114d7565b610694565b60405161019793929190611572565b3480156102d257600080fd5b506101e26102e13660046114d7565b6107eb565b3480156102f257600080fd5b50610269600a5481565b61021a61030a3660046114d7565b6107f6565b34801561031b57600080fd5b5061026961032a3660046115a0565b61099f565b34801561033b57600080fd5b5061021a6109e7565b34801561035057600080fd5b50600b546101e2906001600160a01b031681565b34801561037057600080fd5b506006546001600160a01b03166101e2565b34801561038e57600080fd5b506101b56109fb565b3480156103a357600080fd5b5061021a6103b23660046115a0565b610a0a565b3480156103c357600080fd5b5061021a6103d23660046115bb565b610a8a565b3480156103e357600080fd5b5061021a6103f2366004611683565b610a95565b34801561040357600080fd5b5061021a6104123660046116de565b610bc9565b34801561042357600080fd5b506101b56104323660046114d7565b610be0565b34801561044357600080fd5b5061018b61045236600461175a565b610ce3565b34801561046357600080fd5b506104776104723660046114d7565b610d11565b60405161019795949392919061178d565b34801561049457600080fd5b5061021a6104a33660046115a0565b610dd7565b3480156104b457600080fd5b5061021a6104c33660046114d7565b610e15565b60006001600160e01b031982166380ac58cd60e01b14806104f957506001600160e01b03198216635b5e139f60e01b145b8061051457506301ffc9a760e01b6001600160e01b03198316145b92915050565b606060008054610529906117ce565b80601f0160208091040260200160405190810160405280929190818152602001828054610555906117ce565b80156105a25780601f10610577576101008083540402835291602001916105a2565b820191906000526020600020905b81548152906001019060200180831161058557829003601f168201915b5050505050905090565b60006105b782610e58565b506000828152600460205260409020546001600160a01b0316610514565b6105e0828233610e91565b5050565b6001600160a01b03821661061357604051633250574960e11b8152600060048201526024015b60405180910390fd5b6000610620838333610e9e565b9050836001600160a01b0316816001600160a01b03161461066e576040516364283d7b60e01b81526001600160a01b038086166004830152602482018490528216604482015260640161060a565b50505050565b61068f83838360405180602001604052806000815250610bc9565b505050565b60606000806000600860008681526020019081526020016000206040518060a0016040529081600082015481526020016001820180546106d3906117ce565b80601f01602080910402602001604051908101604052809291908181526020018280546106ff906117ce565b801561074c5780601f106107215761010080835404028352916020019161074c565b820191906000526020600020905b81548152906001019060200180831161072f57829003601f168201915b505050918352505060028201546001600160a01b031660208201526003820154604082015260049091015460ff16151560609091015260808101519091506107cf5760405162461bcd60e51b815260206004820152601660248201527510dbdb9d195b9d08191bd95cc81b9bdd08195e1a5cdd60521b604482015260640161060a565b6020810151604082015160609092015190969195509350915050565b600061051482610e58565b6000818152600860205260409020600481015460ff166108515760405162461bcd60e51b815260206004820152601660248201527510dbdb9d195b9d08191bd95cc81b9bdd08195e1a5cdd60521b604482015260640161060a565b600a5434101561089a5760405162461bcd60e51b8152602060048201526014602482015273125b9cdd59999a58da595b9d081c185e5b595b9d60621b604482015260640161060a565b6001600760008282546108ad919061181e565b90915550506007546108bf3382610f97565b6000818152600960205260408120849055600383018054916108e083611831565b9091555050600b546001600160a01b03161561093157600b546040516001600160a01b03909116903480156108fc02916000818181858888f1935050505015801561092f573d6000803e3d6000fd5b505b6040513390849083907ffc9df75f69e846af9190155b2dffc7a600e5463e547bc1aa468a8497a9dd91d190600090a4827f16b54f578668486cc9adcb082526463786476bedb4fab91dabcfc2642baec6d93460405161099291815260200190565b60405180910390a2505050565b60006001600160a01b0382166109cb576040516322718ad960e21b81526000600482015260240161060a565b506001600160a01b031660009081526003602052604090205490565b6109ef610fb1565b6109f96000610fde565b565b606060018054610529906117ce565b610a12610fb1565b6001600160a01b038116610a685760405162461bcd60e51b815260206004820152601860248201527f496e76616c696420747265617375727920616464726573730000000000000000604482015260640161060a565b600b80546001600160a01b0319166001600160a01b0392909216919091179055565b6105e0338383611030565b60008281526008602052604090206004015460ff1615610af05760405162461bcd60e51b8152602060048201526016602482015275436f6e74656e7420616c72656164792065786973747360501b604482015260640161060a565b6040805160a0810182528381526020808201848152338385015260006060840181905260016080850181905287825260089093529390932082518155925191929190820190610b3f9082611898565b506040828101516002830180546001600160a01b0319166001600160a01b03909216919091179055606083015160038301556080909201516004909101805460ff191691151591909117905551339083907ff19c501ef9d451349a7c3750a5af61097b6e75ff770df93d8a741c8229c08d4190610bbd9085906114c4565b60405180910390a35050565b610bd48484846105e4565b61066e848484846110cf565b600081815260096020526040902054606090610c355760405162461bcd60e51b8152602060048201526014602482015273151bdad95b88191bd95cc81b9bdd08195e1a5cdd60621b604482015260640161060a565b6000828152600960209081526040808320548352600890915290206001018054610c5e906117ce565b80601f0160208091040260200160405190810160405280929190818152602001828054610c8a906117ce565b8015610cd75780601f10610cac57610100808354040283529160200191610cd7565b820191906000526020600020905b815481529060010190602001808311610cba57829003601f168201915b50505050509050919050565b6001600160a01b03918216600090815260056020908152604080832093909416825291909152205460ff1690565b60086020526000908152604090208054600182018054919291610d33906117ce565b80601f0160208091040260200160405190810160405280929190818152602001828054610d5f906117ce565b8015610dac5780601f10610d8157610100808354040283529160200191610dac565b820191906000526020600020905b815481529060010190602001808311610d8f57829003601f168201915b505050506002830154600384015460049094015492936001600160a01b039091169290915060ff1685565b610ddf610fb1565b6001600160a01b038116610e0957604051631e4fbdf760e01b81526000600482015260240161060a565b610e1281610fde565b50565b610e1d610fb1565b600a8190556040518181527f525b762709cc2a983aec5ccdfd807a061f993c91090b5bcd7da92ca254976aaa9060200160405180910390a150565b6000818152600260205260408120546001600160a01b03168061051457604051637e27328960e01b81526004810184905260240161060a565b61068f83838360016111f8565b6000828152600260205260408120546001600160a01b0390811690831615610ecb57610ecb8184866112fe565b6001600160a01b03811615610f0957610ee86000856000806111f8565b6001600160a01b038116600090815260036020526040902080546000190190555b6001600160a01b03851615610f38576001600160a01b0385166000908152600360205260409020805460010190555b60008481526002602052604080822080546001600160a01b0319166001600160a01b0389811691821790925591518793918516917fddf252ad1be2c89b69c2b068fc378daa952ba7f163c4a11628f55a4df523b3ef91a4949350505050565b6105e0828260405180602001604052806000815250611362565b6006546001600160a01b031633146109f95760405163118cdaa760e01b815233600482015260240161060a565b600680546001600160a01b038381166001600160a01b0319831681179093556040519116919082907f8be0079c531659141344cd1fd0a4f28419497f9722a3daafe3b4186f6b6457e090600090a35050565b6001600160a01b03821661106257604051630b61174360e31b81526001600160a01b038316600482015260240161060a565b6001600160a01b03838116600081815260056020908152604080832094871680845294825291829020805460ff191686151590811790915591519182527f17307eab39ab6107e8899845ad3d59bd9653f200f220920489ca2b5937696c31910160405180910390a3505050565b6001600160a01b0383163b1561066e57604051630a85bd0160e11b81526001600160a01b0384169063150b7a0290611111903390889087908790600401611958565b6020604051808303816000875af192505050801561114c575060408051601f3d908101601f1916820190925261114991810190611995565b60015b6111b5573d80801561117a576040519150601f19603f3d011682016040523d82523d6000602084013e61117f565b606091505b5080516000036111ad57604051633250574960e11b81526001600160a01b038516600482015260240161060a565b805181602001fd5b6001600160e01b03198116630a85bd0160e11b146111f157604051633250574960e11b81526001600160a01b038516600482015260240161060a565b5050505050565b808061120c57506001600160a01b03821615155b156112ce57600061121c84610e58565b90506001600160a01b038316158015906112485750826001600160a01b0316816001600160a01b031614155b801561125b57506112598184610ce3565b155b156112845760405163a9fbf51f60e01b81526001600160a01b038416600482015260240161060a565b81156112cc5783856001600160a01b0316826001600160a01b03167f8c5be1e5ebec7d5bd14f71427d1e84f3dd0314c0f7b2291e5b200ac8c7c3b92560405160405180910390a45b505b5050600090815260046020526040902080546001600160a01b0319166001600160a01b0392909216919091179055565b611309838383611379565b61068f576001600160a01b03831661133757604051637e27328960e01b81526004810182905260240161060a565b60405163177e802f60e01b81526001600160a01b03831660048201526024810182905260440161060a565b61136c83836113df565b61068f60008484846110cf565b60006001600160a01b038316158015906113d75750826001600160a01b0316846001600160a01b031614806113b357506113b38484610ce3565b806113d757506000828152600460205260409020546001600160a01b038481169116145b949350505050565b6001600160a01b03821661140957604051633250574960e11b81526000600482015260240161060a565b600061141783836000610e9e565b90506001600160a01b0381161561068f576040516339e3563760e11b81526000600482015260240161060a565b6001600160e01b031981168114610e1257600080fd5b60006020828403121561146c57600080fd5b813561147781611444565b9392505050565b6000815180845260005b818110156114a457602081850181015186830182015201611488565b506000602082860101526020601f19601f83011685010191505092915050565b602081526000611477602083018461147e565b6000602082840312156114e957600080fd5b5035919050565b80356001600160a01b038116811461150757600080fd5b919050565b6000806040838503121561151f57600080fd5b611528836114f0565b946020939093013593505050565b60008060006060848603121561154b57600080fd5b611554846114f0565b9250611562602085016114f0565b9150604084013590509250925092565b606081526000611585606083018661147e565b6001600160a01b039490941660208301525060400152919050565b6000602082840312156115b257600080fd5b611477826114f0565b600080604083850312156115ce57600080fd5b6115d7836114f0565b9150602083013580151581146115ec57600080fd5b809150509250929050565b634e487b7160e01b600052604160045260246000fd5b600067ffffffffffffffff80841115611628576116286115f7565b604051601f8501601f19908116603f01168101908282118183101715611650576116506115f7565b8160405280935085815286868601111561166957600080fd5b858560208301376000602087830101525050509392505050565b6000806040838503121561169657600080fd5b82359150602083013567ffffffffffffffff8111156116b457600080fd5b8301601f810185136116c557600080fd5b6116d48582356020840161160d565b9150509250929050565b600080600080608085870312156116f457600080fd5b6116fd856114f0565b935061170b602086016114f0565b925060408501359150606085013567ffffffffffffffff81111561172e57600080fd5b8501601f8101871361173f57600080fd5b61174e8782356020840161160d565b91505092959194509250565b6000806040838503121561176d57600080fd5b611776836114f0565b9150611784602084016114f0565b90509250929050565b85815260a0602082015260006117a660a083018761147e565b6001600160a01b03959095166040830152506060810192909252151560809091015292915050565b600181811c908216806117e257607f821691505b60208210810361180257634e487b7160e01b600052602260045260246000fd5b50919050565b634e487b7160e01b600052601160045260246000fd5b8082018082111561051457610514611808565b60006001820161184357611843611808565b5060010190565b601f82111561068f57600081815260208120601f850160051c810160208610156118715750805b601f850160051c820191505b818110156118905782815560010161187d565b505050505050565b815167ffffffffffffffff8111156118b2576118b26115f7565b6118c6816118c084546117ce565b8461184a565b602080601f8311600181146118fb57600084156118e35750858301515b600019600386901b1c1916600185901b178555611890565b600085815260208120601f198616915b8281101561192a5788860151825594840194600190910190840161190b565b50858210156119485787850151600019600388901b60f8161c191681555b5050505050600190811b01905550565b6001600160a01b038581168252841660208201526040810183905260806060820181905260009061198b9083018461147e565b9695505050505050565b6000602082840312156119a757600080fd5b81516114778161144456fea264697066735822122076252c04f5596605458d921fceef76137f67f790f790bc917a65bc32f007fd0264736f6c63430008140033",
  "linkReferences": {},
  "deployedLinkReferences": {}
}