{"abi":[{"type":"constructor","inputs":[],"stateMutability":"nonpayable"},{"type":"function","name":"approve","inputs":[{"name":"to","type":"address","internalType":"address"},{"name":"tokenId","type":"uint256","internalType":"uint256"}],"outputs":[],"stateMutability":"nonpayable"},{"type":"function","name":"balanceOf","inputs":[{"name":"owner","type":"address","internalType":"address"}],"outputs":[{"name":"","type":"uint256","internalType":"uint256"}],"stateMutability":"view"},{"type":"function","name":"contents","inputs":[{"name":"","type":"bytes32","internalType":"bytes32"}],"outputs":[{"name":"contentHash","type":"bytes32","internalType":"bytes32"},{"name":"contentURI","type":"string","internalType":"string"},{"name":"submitter","type":"address","internalType":"address"},{"name":"totalMinted","type":"uint256","internalType":"uint256"},{"name":"exists","type":"bool","internalType":"bool"}],"stateMutability":"view"},{"type":"function","name":"daoTreasury","inputs":[],"outputs":[{"name":"","type":"address","internalType":"address"}],"stateMutability":"view"},{"type":"function","name":"getApproved","inputs":[{"name":"tokenId","type":"uint256","internalType":"uint256"}],"outputs":[{"name":"","type":"address","internalType":"address"}],"stateMutability":"view"},{"type":"function","name":"getContent","inputs":[{"name":"contentHash","type":"bytes32","internalType":"bytes32"}],"outputs":[{"name":"contentURI","type":"string","internalType":"string"},{"name":"submitter","type":"address","internalType":"address"},{"name":"totalMinted","type":"uint256","internalType":"uint256"}],"stateMutability":"view"},{"type":"function","name":"isApprovedForAll","inputs":[{"name":"owner","type":"address","internalType":"address"},{"name":"operator","type":"address","internalType":"address"}],"outputs":[{"name":"","type":"bool","internalType":"bool"}],"stateMutability":"view"},{"type":"function","name":"mintContentNFT","inputs":[{"name":"contentHash","type":"bytes32","internalType":"bytes32"}],"outputs":[],"stateMutability":"payable"},{"type":"function","name":"mintPrice","inputs":[],"outputs":[{"name":"","type":"uint256","internalType":"uint256"}],"stateMutability":"view"},{"type":"function","name":"name","inputs":[],"outputs":[{"name":"","type":"string","internalType":"string"}],"stateMutability":"view"},{"type":"function","name":"owner","inputs":[],"outputs":[{"name":"","type":"address","internalType":"address"}],"stateMutability":"view"},{"type":"function","name":"ownerOf","inputs":[{"name":"tokenId","type":"uint256","internalType":"uint256"}],"outputs":[{"name":"","type":"address","internalType":"address"}],"stateMutability":"view"},{"type":"function","name":"renounceOwnership","inputs":[],"outputs":[],"stateMutability":"nonpayable"},{"type":"function","name":"safeTransferFrom","inputs":[{"name":"from","type":"address","internalType":"address"},{"name":"to","type":"address","internalType":"address"},{"name":"tokenId","type":"uint256","internalType":"uint256"}],"outputs":[],"stateMutability":"nonpayable"},{"type":"function","name":"safeTransferFrom","inputs":[{"name":"from","type":"address","internalType":"address"},{"name":"to","type":"address","internalType":"address"},{"name":"tokenId","type":"uint256","internalType":"uint256"},{"name":"data","type":"bytes","internalType":"bytes"}],"outputs":[],"stateMutability":"nonpayable"},{"type":"function","name":"setApprovalForAll","inputs":[{"name":"operator","type":"address","internalType":"address"},{"name":"approved","type":"bool","internalType":"bool"}],"outputs":[],"stateMutability":"nonpayable"},{"type":"function","name":"setDaoTreasury","inputs":[{"name":"_treasury","type":"address","internalType":"address"}],"outputs":[],"stateMutability":"nonpayable"},{"type":"function","name":"setMintPrice","inputs":[{"name":"newPrice","type":"uint256","internalType":"uint256"}],"outputs":[],"stateMutability":"nonpayable"},{"type":"function","name":"submitContent","inputs":[{"name":"contentHash","type":"bytes32","internalType":"bytes32"},{"name":"contentURI","type":"string","internalType":"string"}],"outputs":[],"stateMutability":"nonpayable"},{"type":"function","name":"supportsInterface","inputs":[{"name":"interfaceId","type":"bytes4","internalType":"bytes4"}],"outputs":[{"name":"","type":"bool","internalType":"bool"}],"stateMutability":"view"},{"type":"function","name":"symbol","inputs":[],"outputs":[{"name":"","type":"string","internalType":"string"}],"stateMutability":"view"},{"type":"function","name":"tokenContent","inputs":[{"name":"","type":"uint256","internalType":"uint256"}],"outputs":[{"name":"","type":"bytes32","internalType":"bytes32"}],"stateMutability":"view"},{"type":"function","name":"tokenURI","inputs":[{"name":"tokenId","type":"uint256","internalType":"uint256"}],"outputs":[{"name":"","type":"string","internalType":"string"}],"stateMutability":"view"},{"type":"function","name":"transferFrom","inputs":[{"name":"from","type":"address","internalType":"address"},{"name":"to","type":"address","internalType":"address"},{"name":"tokenId","type":"uint256","internalType":"uint256"}],"outputs":[],"stateMutability":"nonpayable"},{"type":"function","name":"transferOwnership","inputs":[{"name":"newOwner","type":"address","internalType":"address"}],"outputs":[],"stateMutability":"nonpayable"},{"type":"event","name":"Approval","inputs":[{"name":"owner","type":"address","indexed":true,"internalType":"address"},{"name":"approved","type":"address","indexed":true,"internalType":"address"},{"name":"tokenId","type":"uint256","indexed":true,"internalType":"uint256"}],"anonymous":false},{"type":"event","name":"ApprovalForAll","inputs":[{"name":"owner","type":"address","indexed":true,"internalType":"address"},{"name":"operator","type":"address","indexed":true,"internalType":"address"},{"name":"approved","type":"bool","indexed":false,"internalType":"bool"}],"anonymous":false},{"type":"event","name":"ContentSubmitted","inputs":[{"name":"contentHash","type":"bytes32","indexed":true,"internalType":"bytes32"},{"name":"submitter","type":"address","indexed":true,"internalType":"address"},{"name":"contentURI","type":"string","indexed":false,"internalType":"string"}],"anonymous":false},{"type":"event","name":"MintPriceUpdated","inputs":[{"name":"newPrice","type":"uint256","indexed":false,"internalType":"uint256"}],"anonymous":false},{"type":"event","name":"NFTMinted","inputs":[{"name":"tokenId","type":"uint256","indexed":true,"internalType":"uint256"},{"name":"contentHash","type":"bytes32","indexed":true,"internalType":"bytes32"},{"name":"minter","type":"address","indexed":true,"internalType":"address"}],"anonymous":false},{"type":"event","name":"OwnershipTransferred","inputs":[{"name":"previousOwner","type":"address","indexed":true,"internalType":"address"},{"name":"newOwner","type":"address","indexed":true,"internalType":"address"}],"anonymous":false},{"type":"event","name":"StorageFeesCollected","inputs":[{"name":"contentHash","type":"bytes32","indexed":true,"internalType":"bytes32"},{"name":"amount","type":"uint256","indexed":false,"internalType":"uint256"}],"anonymous":false},{"type":"event","name":"Transfer","inputs":[{"name":"from","type":"address","indexed":true,"internalType":"address"},{"name":"to","type":"address","indexed":true,"internalType":"address"},{"name":"tokenId","type":"uint256","indexed":true,"internalType":"uint256"}],"anonymous":false}],"bytecode":{"object":"0x60806040523480156200001157600080fd5b506040518060400160405280600f81526020016e436f6e74656e74426f6f6b6d61726b60881b8152506040518060400160405280600381526020016243424d60e81b815250816000908162000067919062000194565b50600162000076828262000194565b505050620000936200008d6200009960201b60201c565b6200009d565b62000260565b3390565b600680546001600160a01b038381166001600160a01b0319831681179093556040519116919082907f8be0079c531659141344cd1fd0a4f28419497f9722a3daafe3b4186f6b6457e090600090a35050565b634e487b7160e01b600052604160045260246000fd5b600181811c908216806200011a57607f821691505b6020821081036200013b57634e487b7160e01b600052602260045260246000fd5b50919050565b601f8211156200018f57600081815260208120601f850160051c810160208610156200016a5750805b601f850160051c820191505b818110156200018b5782815560010162000176565b5050505b505050565b81516001600160401b03811115620001b057620001b0620000ef565b620001c881620001c1845462000105565b8462000141565b602080601f831160018114620002005760008415620001e75750858301515b600019600386901b1c1916600185901b1785556200018b565b600085815260208120601f198616915b82811015620002315788860151825594840194600190910190840162000210565b5085821015620002505787850151600019600388901b60f8161c191681555b5050505050600190811b01905550565b611d9780620002706000396000f3fe6080604052600436106101665760003560e01c8063715018a6116100d1578063a726946f1161008a578063e985e9c511610064578063e985e9c514610437578063f20ca12c14610480578063f2fde38b146104b1578063f4a0a528146104d157600080fd5b8063a726946f146103d7578063b88d4fde146103f7578063c87b56dd1461041757600080fd5b8063715018a61461032f57806379022a9f146103445780638da5cb5b1461036457806395d89b4114610382578063a124df5d14610397578063a22cb465146103b757600080fd5b806342842e0e1161012357806342842e0e146102775780635cc15001146102975780636352211e146102c65780636817c76c146102e65780637010bf59146102fc57806370a082311461030f57600080fd5b806301ffc9a71461016b57806306fdde03146101a0578063081812fc146101c2578063095ea7b3146101fa57806323b872dd1461021c5780633969a1a51461023c575b600080fd5b34801561017757600080fd5b5061018b610186366004611740565b6104f1565b60405190151581526020015b60405180910390f35b3480156101ac57600080fd5b506101b5610543565b60405161019791906117aa565b3480156101ce57600080fd5b506101e26101dd3660046117bd565b6105d5565b6040516001600160a01b039091168152602001610197565b34801561020657600080fd5b5061021a6102153660046117f2565b6105fc565b005b34801561022857600080fd5b5061021a61023736600461181c565b610716565b34801561024857600080fd5b506102696102573660046117bd565b60086020526000908152604090205481565b604051908152602001610197565b34801561028357600080fd5b5061021a61029236600461181c565b610747565b3480156102a357600080fd5b506102b76102b23660046117bd565b610762565b60405161019793929190611858565b3480156102d257600080fd5b506101e26102e13660046117bd565b6108b9565b3480156102f257600080fd5b50610269600a5481565b61021a61030a3660046117bd565b610919565b34801561031b57600080fd5b5061026961032a366004611886565b610ac2565b34801561033b57600080fd5b5061021a610b48565b34801561035057600080fd5b50600b546101e2906001600160a01b031681565b34801561037057600080fd5b506006546001600160a01b03166101e2565b34801561038e57600080fd5b506101b5610b5c565b3480156103a357600080fd5b5061021a6103b2366004611886565b610b6b565b3480156103c357600080fd5b5061021a6103d23660046118a1565b610beb565b3480156103e357600080fd5b5061021a6103f2366004611969565b610bfa565b34801561040357600080fd5b5061021a6104123660046119c4565b610d2e565b34801561042357600080fd5b506101b56104323660046117bd565b610d66565b34801561044357600080fd5b5061018b610452366004611a40565b6001600160a01b03918216600090815260056020908152604080832093909416825291909152205460ff1690565b34801561048c57600080fd5b506104a061049b3660046117bd565b610e72565b604051610197959493929190611a73565b3480156104bd57600080fd5b5061021a6104cc366004611886565b610f38565b3480156104dd57600080fd5b5061021a6104ec3660046117bd565b610fb1565b60006001600160e01b031982166380ac58cd60e01b148061052257506001600160e01b03198216635b5e139f60e01b145b8061053d57506301ffc9a760e01b6001600160e01b03198316145b92915050565b60606000805461055290611ab4565b80601f016020809104026020016040519081016040528092919081815260200182805461057e90611ab4565b80156105cb5780601f106105a0576101008083540402835291602001916105cb565b820191906000526020600020905b8154815290600101906020018083116105ae57829003601f168201915b5050505050905090565b60006105e082610ff4565b506000908152600460205260409020546001600160a01b031690565b6000610607826108b9565b9050806001600160a01b0316836001600160a01b0316036106795760405162461bcd60e51b815260206004820152602160248201527f4552433732313a20617070726f76616c20746f2063757272656e74206f776e656044820152603960f91b60648201526084015b60405180910390fd5b336001600160a01b038216148061069557506106958133610452565b6107075760405162461bcd60e51b815260206004820152603d60248201527f4552433732313a20617070726f76652063616c6c6572206973206e6f7420746f60448201527f6b656e206f776e6572206f7220617070726f76656420666f7220616c6c0000006064820152608401610670565b6107118383611053565b505050565b61072033826110c1565b61073c5760405162461bcd60e51b815260040161067090611aee565b610711838383611140565b61071183838360405180602001604052806000815250610d2e565b60606000806000600760008681526020019081526020016000206040518060a0016040529081600082015481526020016001820180546107a190611ab4565b80601f01602080910402602001604051908101604052809291908181526020018280546107cd90611ab4565b801561081a5780601f106107ef5761010080835404028352916020019161081a565b820191906000526020600020905b8154815290600101906020018083116107fd57829003601f168201915b505050918352505060028201546001600160a01b031660208201526003820154604082015260049091015460ff161515606090910152608081015190915061089d5760405162461bcd60e51b815260206004820152601660248201527510dbdb9d195b9d08191bd95cc81b9bdd08195e1a5cdd60521b6044820152606401610670565b6020810151604082015160609092015190969195509350915050565b6000818152600260205260408120546001600160a01b03168061053d5760405162461bcd60e51b8152602060048201526018602482015277115490cdcc8c4e881a5b9d985b1a59081d1bdad95b88125160421b6044820152606401610670565b6000818152600760205260409020600481015460ff166109745760405162461bcd60e51b815260206004820152601660248201527510dbdb9d195b9d08191bd95cc81b9bdd08195e1a5cdd60521b6044820152606401610670565b600a543410156109bd5760405162461bcd60e51b8152602060048201526014602482015273125b9cdd59999a58da595b9d081c185e5b595b9d60621b6044820152606401610670565b6109cb600980546001019055565b60006109d660095490565b90506109e233826112a4565b600081815260086020526040812084905560038301805491610a0383611b3b565b9091555050600b546001600160a01b031615610a5457600b546040516001600160a01b03909116903480156108fc02916000818181858888f19350505050158015610a52573d6000803e3d6000fd5b505b6040513390849083907ffc9df75f69e846af9190155b2dffc7a600e5463e547bc1aa468a8497a9dd91d190600090a4827f16b54f578668486cc9adcb082526463786476bedb4fab91dabcfc2642baec6d934604051610ab591815260200190565b60405180910390a2505050565b60006001600160a01b038216610b2c5760405162461bcd60e51b815260206004820152602960248201527f4552433732313a2061646472657373207a65726f206973206e6f7420612076616044820152683634b21037bbb732b960b91b6064820152608401610670565b506001600160a01b031660009081526003602052604090205490565b610b506112be565b610b5a6000611318565b565b60606001805461055290611ab4565b610b736112be565b6001600160a01b038116610bc95760405162461bcd60e51b815260206004820152601860248201527f496e76616c6964207472656173757279206164647265737300000000000000006044820152606401610670565b600b80546001600160a01b0319166001600160a01b0392909216919091179055565b610bf633838361136a565b5050565b60008281526007602052604090206004015460ff1615610c555760405162461bcd60e51b8152602060048201526016602482015275436f6e74656e7420616c72656164792065786973747360501b6044820152606401610670565b6040805160a0810182528381526020808201848152338385015260006060840181905260016080850181905287825260079093529390932082518155925191929190820190610ca49082611bb0565b506040828101516002830180546001600160a01b0319166001600160a01b03909216919091179055606083015160038301556080909201516004909101805460ff191691151591909117905551339083907ff19c501ef9d451349a7c3750a5af61097b6e75ff770df93d8a741c8229c08d4190610d229085906117aa565b60405180910390a35050565b610d3833836110c1565b610d545760405162461bcd60e51b815260040161067090611aee565b610d6084848484611438565b50505050565b6000818152600260205260409020546060906001600160a01b0316610dc45760405162461bcd60e51b8152602060048201526014602482015273151bdad95b88191bd95cc81b9bdd08195e1a5cdd60621b6044820152606401610670565b6000828152600860209081526040808320548352600790915290206001018054610ded90611ab4565b80601f0160208091040260200160405190810160405280929190818152602001828054610e1990611ab4565b8015610e665780601f10610e3b57610100808354040283529160200191610e66565b820191906000526020600020905b815481529060010190602001808311610e4957829003601f168201915b50505050509050919050565b60076020526000908152604090208054600182018054919291610e9490611ab4565b80601f0160208091040260200160405190810160405280929190818152602001828054610ec090611ab4565b8015610f0d5780601f10610ee257610100808354040283529160200191610f0d565b820191906000526020600020905b815481529060010190602001808311610ef057829003601f168201915b505050506002830154600384015460049094015492936001600160a01b039091169290915060ff1685565b610f406112be565b6001600160a01b038116610fa55760405162461bcd60e51b815260206004820152602660248201527f4f776e61626c653a206e6577206f776e657220697320746865207a65726f206160448201526564647265737360d01b6064820152608401610670565b610fae81611318565b50565b610fb96112be565b600a8190556040518181527f525b762709cc2a983aec5ccdfd807a061f993c91090b5bcd7da92ca254976aaa9060200160405180910390a150565b6000818152600260205260409020546001600160a01b0316610fae5760405162461bcd60e51b8152602060048201526018602482015277115490cdcc8c4e881a5b9d985b1a59081d1bdad95b88125160421b6044820152606401610670565b600081815260046020526040902080546001600160a01b0319166001600160a01b0384169081179091558190611088826108b9565b6001600160a01b03167f8c5be1e5ebec7d5bd14f71427d1e84f3dd0314c0f7b2291e5b200ac8c7c3b92560405160405180910390a45050565b6000806110cd836108b9565b9050806001600160a01b0316846001600160a01b0316148061111457506001600160a01b0380821660009081526005602090815260408083209388168352929052205460ff165b806111385750836001600160a01b031661112d846105d5565b6001600160a01b0316145b949350505050565b826001600160a01b0316611153826108b9565b6001600160a01b0316146111795760405162461bcd60e51b815260040161067090611c70565b6001600160a01b0382166111db5760405162461bcd60e51b8152602060048201526024808201527f4552433732313a207472616e7366657220746f20746865207a65726f206164646044820152637265737360e01b6064820152608401610670565b826001600160a01b03166111ee826108b9565b6001600160a01b0316146112145760405162461bcd60e51b815260040161067090611c70565b600081815260046020908152604080832080546001600160a01b03199081169091556001600160a01b0387811680865260038552838620805460001901905590871680865283862080546001019055868652600290945282852080549092168417909155905184937fddf252ad1be2c89b69c2b068fc378daa952ba7f163c4a11628f55a4df523b3ef91a4505050565b610bf682826040518060200160405280600081525061146b565b6006546001600160a01b03163314610b5a5760405162461bcd60e51b815260206004820181905260248201527f4f776e61626c653a2063616c6c6572206973206e6f7420746865206f776e65726044820152606401610670565b600680546001600160a01b038381166001600160a01b0319831681179093556040519116919082907f8be0079c531659141344cd1fd0a4f28419497f9722a3daafe3b4186f6b6457e090600090a35050565b816001600160a01b0316836001600160a01b0316036113cb5760405162461bcd60e51b815260206004820152601960248201527f4552433732313a20617070726f766520746f2063616c6c6572000000000000006044820152606401610670565b6001600160a01b03838116600081815260056020908152604080832094871680845294825291829020805460ff191686151590811790915591519182527f17307eab39ab6107e8899845ad3d59bd9653f200f220920489ca2b5937696c31910160405180910390a3505050565b611443848484611140565b61144f8484848461149e565b610d605760405162461bcd60e51b815260040161067090611cb5565b611475838361159f565b611482600084848461149e565b6107115760405162461bcd60e51b815260040161067090611cb5565b60006001600160a01b0384163b1561159457604051630a85bd0160e11b81526001600160a01b0385169063150b7a02906114e2903390899088908890600401611d07565b6020604051808303816000875af192505050801561151d575060408051601f3d908101601f1916820190925261151a91810190611d44565b60015b61157a573d80801561154b576040519150601f19603f3d011682016040523d82523d6000602084013e611550565b606091505b5080516000036115725760405162461bcd60e51b815260040161067090611cb5565b805181602001fd5b6001600160e01b031916630a85bd0160e11b149050611138565b506001949350505050565b6001600160a01b0382166115f55760405162461bcd60e51b815260206004820181905260248201527f4552433732313a206d696e7420746f20746865207a65726f20616464726573736044820152606401610670565b6000818152600260205260409020546001600160a01b03161561165a5760405162461bcd60e51b815260206004820152601c60248201527f4552433732313a20746f6b656e20616c7265616479206d696e746564000000006044820152606401610670565b6000818152600260205260409020546001600160a01b0316156116bf5760405162461bcd60e51b815260206004820152601c60248201527f4552433732313a20746f6b656e20616c7265616479206d696e746564000000006044820152606401610670565b6001600160a01b038216600081815260036020908152604080832080546001019055848352600290915280822080546001600160a01b0319168417905551839291907fddf252ad1be2c89b69c2b068fc378daa952ba7f163c4a11628f55a4df523b3ef908290a45050565b6001600160e01b031981168114610fae57600080fd5b60006020828403121561175257600080fd5b813561175d8161172a565b9392505050565b6000815180845260005b8181101561178a5760208185018101518683018201520161176e565b506000602082860101526020601f19601f83011685010191505092915050565b60208152600061175d6020830184611764565b6000602082840312156117cf57600080fd5b5035919050565b80356001600160a01b03811681146117ed57600080fd5b919050565b6000806040838503121561180557600080fd5b61180e836117d6565b946020939093013593505050565b60008060006060848603121561183157600080fd5b61183a846117d6565b9250611848602085016117d6565b9150604084013590509250925092565b60608152600061186b6060830186611764565b6001600160a01b039490941660208301525060400152919050565b60006020828403121561189857600080fd5b61175d826117d6565b600080604083850312156118b457600080fd5b6118bd836117d6565b9150602083013580151581146118d257600080fd5b809150509250929050565b634e487b7160e01b600052604160045260246000fd5b600067ffffffffffffffff8084111561190e5761190e6118dd565b604051601f8501601f19908116603f01168101908282118183101715611936576119366118dd565b8160405280935085815286868601111561194f57600080fd5b858560208301376000602087830101525050509392505050565b6000806040838503121561197c57600080fd5b82359150602083013567ffffffffffffffff81111561199a57600080fd5b8301601f810185136119ab57600080fd5b6119ba858235602084016118f3565b9150509250929050565b600080600080608085870312156119da57600080fd5b6119e3856117d6565b93506119f1602086016117d6565b925060408501359150606085013567ffffffffffffffff811115611a1457600080fd5b8501601f81018713611a2557600080fd5b611a34878235602084016118f3565b91505092959194509250565b60008060408385031215611a5357600080fd5b611a5c836117d6565b9150611a6a602084016117d6565b90509250929050565b85815260a060208201526000611a8c60a0830187611764565b6001600160a01b03959095166040830152506060810192909252151560809091015292915050565b600181811c90821680611ac857607f821691505b602082108103611ae857634e487b7160e01b600052602260045260246000fd5b50919050565b6020808252602d908201527f4552433732313a2063616c6c6572206973206e6f7420746f6b656e206f776e6560408201526c1c881bdc88185c1c1c9bdd9959609a1b606082015260800190565b600060018201611b5b57634e487b7160e01b600052601160045260246000fd5b5060010190565b601f82111561071157600081815260208120601f850160051c81016020861015611b895750805b601f850160051c820191505b81811015611ba857828155600101611b95565b505050505050565b815167ffffffffffffffff811115611bca57611bca6118dd565b611bde81611bd88454611ab4565b84611b62565b602080601f831160018114611c135760008415611bfb5750858301515b600019600386901b1c1916600185901b178555611ba8565b600085815260208120601f198616915b82811015611c4257888601518255948401946001909101908401611c23565b5085821015611c605787850151600019600388901b60f8161c191681555b5050505050600190811b01905550565b60208082526025908201527f4552433732313a207472616e736665722066726f6d20696e636f72726563742060408201526437bbb732b960d91b606082015260800190565b60208082526032908201527f4552433732313a207472616e7366657220746f206e6f6e20455243373231526560408201527131b2b4bb32b91034b6b83632b6b2b73a32b960711b606082015260800190565b6001600160a01b0385811682528416602082015260408101839052608060608201819052600090611d3a90830184611764565b9695505050505050565b600060208284031215611d5657600080fd5b815161175d8161172a56fea26469706673582212206db5abad1b1d12ee79e0f3c11c8930762cf0aabace8b1961b2c8cddd4cd24d7f64736f6c63430008140033","linkReferences":{}},"methodIdentifiers":{"approve(address,uint256)":"095ea7b3","balanceOf(address)":"70a08231","contents(bytes32)":"f20ca12c","daoTreasury()":"79022a9f","getApproved(uint256)":"081812fc","getContent(bytes32)":"5cc15001","isApprovedForAll(address,address)":"e985e9c5","mintContentNFT(bytes32)":"7010bf59","mintPrice()":"6817c76c","name()":"06fdde03","owner()":"8da5cb5b","ownerOf(uint256)":"6352211e","renounceOwnership()":"715018a6","safeTransferFrom(address,address,uint256)":"42842e0e","safeTransferFrom(address,address,uint256,bytes)":"b88d4fde","setApprovalForAll(address,bool)":"a22cb465","setDaoTreasury(address)":"a124df5d","setMintPrice(uint256)":"f4a0a528","submitContent(bytes32,string)":"a726946f","supportsInterface(bytes4)":"01ffc9a7","symbol()":"95d89b41","tokenContent(uint256)":"3969a1a5","tokenURI(uint256)":"c87b56dd","transferFrom(address,address,uint256)":"23b872dd","transferOwnership(address)":"f2fde38b"},"id":33}